:100000000C944401189518951895189518951895FD
:100010001895189518951895189518951895189578
:100020001895189518951895189518951895189568
:100030001895189518951895189518951895189558
:10004000189518950C94E80018951895189518951A
:10005000189518958A93802F003211F0083411F406
:100060000E94C600082F899108959A938A93C450DC
:1000700080E090E00FEF07BB88BB81BB0E9494003B
:10008000789404C00E949F00E5DF000010B3109533
:1000900059F100B30095E9F7105821F1115849F0D2
:1000A0001A9569F0125099F01C51B1F01052C1F03C
:1000B0001BC000E008830AEA098312E006C000E2E0
:1000C000088300E109839A8313E02BD00DC000E27E
:1000D0000883098325D082E00E949F0008BB04C0EA
:1000E000939501C090E098BB0E949B00002369F6A5
:1000F0000091660000FFC6CF882339F2823029F4D0
:1001000001E208830DD083E0C0CF833009F0BDCF7A
:1001100012E00C2F0E94D100098108BB80E0B5CF0E
:1001200012E00C2F0C94A5000CE000B90FEF03B9FE
:1001300004E006BF089516B71170012F089506B7A1
:1001400000FDFDCF009165000895AD01212F16B788
:1001500010FDFDCFE0E6F0E02483A02FB0E01C917D
:1001600010831C9110FD0BC011E007C0A02FA10F40
:100170003C91A0E6A10F3C9313951217B8F3F683B8
:1001800008EF058305EA06BFDA01089506B700FD0A
:10019000FDCF00E00093660008EF0093650005EADC
:1001A000C8CF26B720FDFDCFE0E6F0E0268120FF96
:1001B0000BC020E007C0E22FE05A3081E02FE20FB1
:1001C000308323952117B8F3E0E606810170089586
:1001D000BA93AA939A938A93FA93EA932A931A93D7
:1001E0000A932FB7E0E6F0E00781A0E6A00F01B187
:1001F000085079F0085069F0085061F0005151F052
:10020000005171F10850C9F0005189F0085001F116
:1002100029C0F783078114810117E8F4A0E6A00F35
:10022000B0E00C9103B90781039507830FC003B1B8
:10023000B0E00C930781039507830781848190E0E8
:1002400001970817F90714F405EC0FC005E80DC075
:1002500003B1B0E00C9306810160068304E905C098
:1002600005EA03C001B1058304E006BF2FBF099171
:1002700019912991E991F99189919991A991B9914E
:10028000189500008895FECF07EA0DBF00E00EBF6D
:10029000C8E8D0E00E945601002311F00E946601D8
:1002A0000E9435000E9441010C94410101E0089533
:1002B00020E006D0E9F70895259102D0E9F70895E6
:1002C0002D9301501040202F212B089580E093E0C2
:1002D000FC0105911491FC013296A591B491FC01A9
:1002E000349625913491422F432B19F0F901E4DF24
:1002F00001C0DEDF069613E08630910748F30895CB
:0E0300000800600006030000000000F8000086
:00000001FF
:00000001FF
